:020000000828CE
:100008008B188D2021280900831685018601870118
:10001800880106148610061186110612861201132D
:1000280083128501870188010130850186018701D6
:1000380088018B1090308B040310023085008600F5
:100048000616802004308500860006165D200830DC
:1000580085008600861680202128BD308C004B3014
:100068008D0015308E008C0B37288D0B37288E0BA2
:10007800372808006F30870031207F308700312013
:100088000730870031207D30870031206D308700B0
:1000980031206630870031204F30870031205B30B7
:1000A800870031200630870031203F30870031201B
:1000B80008006D30870031206630870031204F30CE
:1000C800870031205B3087003120063087003120DF
:1000D8003F308700312008004F3088003120080069
:1000E8005B30880031200800063088003120080085
:1000F8003F3088003120080070203E2031207420D5
:100108003E20312078203E2031207C203E203120A6
:10011800080078203E2031207C203E203120043009
:100128008500860006165D20083085008600861644
:0601380080208B1008007E
:02400E003A3F37
:00000001FF
